:020000020000FC
:100000000FEF0DBF18E01EBF3F065B4F666D7D070B
:100010007F6F777C395E79710E946A0040E030E042
:1000200070E06FE080E000E80093610007E000937B
:10003000610006E005B90FEF0AB90FE707B920E044
:1000400050E0F0E0E8E0E20F249126FD4F9A28B955
:100050005F9803B102FF14C013B111FF18C005B3BC
:1000600001FFF3CFA99A4395413079F744271B9AB2
:1000700036130E945E0030E03BB978135E9AE5CFFC
:1000800004E60A95F1F71A9BFBCF0E944E0014E696
:100090001A95F1F7199BFBCF0E9456005613539502
:1000A000252FF0E0E8E0E20F2491CFCF58135A95C6
:1000B000252FF0E0E8E0E20F2491C7CF3395330F0E
:1000C000330F3BB978135E9A369536953513BDCF0D
:1000D0000E94730000E006BD0CE907BD02E004BD0C
:1000E00005E005BD089578130E947A007FE05E9ACE
:0A00F0003FE0ABCF70E03FE0A8CF87
:00000001FF
